:020000040800F2
:10000000A007002049020008B31900083F180008A3
:10001000B119000855080008451D0008000000003F
:10002000000000000000000000000000251B000888
:100030005708000800000000B5190008271B000839
:1000400063020008630200086302000863020008FC
:1000500063020008630200086302000863020008EC
:1000600063020008630200086302000863020008DC
:1000700063020008630200086302000863020008CC
:100080006302000863020008630200080000000029
:1000900000000000000000000000000063020008F3
:1000A000630200086302000863020008630200089C
:1000B000630200086302000863020008630200088C
:1000C000630200086302000863020008630200087C
:1000D00063020008630200086302000800000000D9
:1000E00063020008630200086302000800000000C9
:1000F0000000000000000000000000006302000893
:1001000000000000630200086302000863020008A8
:1001100000000000000000000000000000000000DF
:10012000630200086302000863020008630200081B
:100130006302000800000000000000000000000052
:100140000000000000000000000000006302000842
:1001500063020008630200086302000863020008EB
:1001600063020008630200080000000000000000B5
:10017000000000000000000000000000000000007F
:100180000000000063020008000000000000000002
:10019000630200086302000800F002F800F044F86F
:1001A0000AA090E8000C82448344AAF10107DA45D2
:1001B00001D100F039F8AFF2090EBAE80F0013F0E0
:1001C000010F18BFFB1A43F001031847D02A0000A3
:1001D000F02A0000103A24BF78C878C1FAD8520734
:1001E00024BF30C830C144BF04680C6070470000B1
:1001F0000023002400250026103A28BF78C1FBD830
:10020000520728BF30C148BF0B607047642900F017
:10021000C980782900F00281002070471FB502F0E4
:1002200004FD1FBD10B510BD00F0DFFA1146FFF749
:10023000F5FF02F001F800F0FDFA03B4FFF7F2FF5A
:1002400003BC00F001FB0000094880470948004753
:10025000FEE7FEE7FEE7FEE7FEE7FEE7FEE7FEE776
:10026000FEE7FEE704480549054A064B70470000D3
:10027000B11B000899010008A0010020A007002080
:10028000A0030020A003002053EA020C00F06980C4
:100290002DE9F04B4FF00006002B1FBFB3FA83F59A
:1002A00003FA05F424FA05F65E4012BF1643B2FACB
:1002B00082F502FA05F4C5F120051EBF22FA05FCFD
:1002C00044EA0C04203556EA044C4FEA144418BFA3
:1002D000641C4FF000084FF00009904271EB030CD2
:1002E00039D3002919BFB1FA81F701FA07F6B0FA3C
:1002F00080F700FA07F6C7F120071EBF20FA07FCB7
:1003000046EA0C062037B6FBF4FCA7EB0507103FC6
:1003100007F01F0BCBF120060CFA0BFB2CFA06F6AC
:1003200044BFB3460026202FA4BF5E464FF0000B0B
:100330005BEA060C08BF4FF0010B19EB0B09ABFB96
:10034000027C48EB0608C01B06FB02CC0BFB03CC6F
:1003500071EB0C01C1E70B46024641464846BDE839
:10036000F08B13B54FF000004FF00001AFF30080A9
:10037000BDE81C40704700000FB41CB5084B06AA2E
:100380007B4469460090059800F011FA044600206D
:10039000694600F01FFA20461CBC5DF814FB000003
:1003A000510400002DE9F04106460024106875292B
:1003B000314616A510D0AFF30080002802DA404283
:1003C00013A507E031688A0701D512A502E04907A5
:1003D00004D511A5012401E0AFF3008000210A2219
:1003E00006F1240709E0B0FBF2FCB0FBF2F302FBDC
:1003F0001C00303078541846491C0028F3D123469D
:100400002A463046BDE8F04100F073B90000000014
:100410002D0000002B0000002000000070B50446F5
:100420000D4621461068AFF300802188090502D5EA
:100430000F4A7A4402E00E4A7A440E32002104F157
:10044000240305E000F00F060009965D5E54491C88
:100450000028F7D120780023000704D5702D02D0A2
:1004600009B1022311322046BDE8704000F041B9C5
:100470002D2800002DE9F05F894604464FF0000A60
:10048000DFF874B1FB44C0F820A02046E16888473B
:10049000002874D0252806D0D4E901219047206A8D
:1004A000401C2062F1E700265F462046E16888474D
:1004B0002028054607DB312D05D2781910F8200CCD
:1004C00008B10643F1E7B00701D526F00406C4F8E9
:1004D0001CA00027C4F818A02A2D09D0284601F036
:1004E00011FD38B304EB8708303DC8F8185019E007
:1004F00059F8041B204604EB87029161E1688847A4
:10050000012F054618D1E069002820DA26F02006E0
:100510001DE0D8F8180000EB800005EB40003038F3
:10052000C8F818002046E1688847054601F0EAFC53
:100530000028EED1012F0AD02E2D08D12046E168E7
:1005400088477F1C0546022F46F02006C4DBA069C1
:10055000002803DA404246F00106A061F00701D00E
:1005600026F010066C2D0BD0682D09D04C2D39D0FB
:100570006A2D35D0742D35D07A2D33D016E038E081
:10058000E1682F4620468847B842054609D16C2FBE
:1005900026D04FF48060E168064320468847054630
:1005A00004E06C2F1AD04FF4807006430DB3A5F110
:1005B0004100192802D8203546F400664A462946EB
:1005C000204626604E46FFF721FE80B101280BD061
:1005D000F61D26F0070000F1080956E74020E4E781
:1005E0008020D8E70020D6E706F104094DE7284629
:1005F00052E7206ABDE8F09F0328000010B5431CB5
:1006000002E010F8011B71B18107FAD14FF00132FD
:1006100002C88C1A8C4314EAC211F9D0C01A0A0617
:1006200003D0C01E10BDC01A10BD0A0401D0801E28
:1006300010BD0902FCD0401E10BD10B5203AC0F01C
:100640000B80B1E81850203AA0E81850B1E81850D3
:10065000A0E81850BFF4F5AF5FEA027C24BFB1E810
:100660001850A0E8185044BF18C918C0BDE8104081
:100670005FEA827C24BF51F8043B40F8043B08BF8A
:100680007047D20728BF31F8023B48BF11F8012B51
:1006900028BF20F8023B48BF00F8012B70474FF0FD
:1006A000000200B5134694469646203922BFA0E8C2
:1006B0000C50A0E80C50B1F12001BFF4F7AF0907CE
:1006C00028BFA0E80C5048BF0CC05DF804EB8900BF
:1006D00028BF40F8042B08BF704748BF20F8022B02
:1006E00011F0804F18BF00F8012B7047704770471A
:1006F00070472DE9F0470D4699469246044600F1B1
:1007000024080168880604D5E06921F01001216001
:1007100000E00120A84201DD471B00E00027A1699D
:100720007A1902EB0900081AA0612078C00602D4E9
:100730002046AFF30080002608E0D4E901211AF832
:1007400006009047206A401C761C20624E45F4DB70
:100750002078C0060AD52046AFF3008006E0D4E931
:10076000012130209047206A401C2062381EA7F1EA
:100770000107F4DC07E0D4E9012118F805009047EF
:10078000206A401C2062281EA5F10105F3DC2046EA
:10079000AFF300802078000602D50220BDE8F08784
:1007A0000120FBE701694A1C02610878704700B527
:1007B0008FB0CDE901310021059105497944CDE99A
:1007C000031011466846FFF755FE0FB000BD00004C
:1007D000E5FFFFFF0A6802F8010B0A60704700009E
:1007E000004870473C01002070477546FFF7F8FF4E
:1007F000AE4605006946534620F00700854618B00E
:1008000020B5FFF72FFDBDE820404FF000064FF068
:1008100000074FF000084FF0000B21F00701AC4635
:10082000ACE8C009ACE8C009ACE8C009ACE8C00954
:100830008D46704710B50446AFF300802046BDE8F2
:100840001040FFF7FABC000001491820ABBEFEE7DC
:1008500026000200FEE7704770B5044600F004F978
:100860000546601C02D004480078044400F0FCF8FF
:10087000401BA042FAD370BD440000202DE9F84F80
:10088000DFF8B8A1002201240AF1040B03254FF080
:100890000F090BF1040E00BF0B6804FA02F6334097
:1008A000B34273D10F7907F00307012F01D0022F54
:1008B00016D187684FEA420805FA08FC27EA0C07B8
:1008C000D1F80CC00CFA08FC4CEA070CC0F808C0C0
:1008D0004768B7430E79C6F3001696403E4346601C
:1008E0000E79F643B6070DD0C768560005FA06FC28
:1008F00027EA0C07D1F808C00CFA06FC4CEA070CF2
:10090000C0F80CC00E7906F00306022E10D1D608EE
:1009100000EB8608D8F8206057074FEAD76C09FA31
:100920000CF7BE430F6907FA0CF73743C8F820707D
:1009300006684FEA420C05FA0CF7BE430F7907F040
:10094000030707FA0CF7374307604E6816F4403F79
:100950006DD03B4E376847F480473760366822F0E9
:10096000030706F480460096364E07EB060CDCF8CB
:10097000086897073F0F09FA07F826EA0806DFF824
:10098000C880404503D14FF000081EE04FE0DFF87B
:10099000BC80404502D14FF0010816E0DFF8B0807E
:1009A000404502D14FF002080FE0DFF8A880404533
:1009B00002D14FF0030808E0DFF89C80404502D1E7
:1009C0004FF0040801E04FF0070808FA07F848EA7A
:1009D0000608CCF80888DAF800605746D1F804C059
:1009E0009E435FEACC3C00D51E433E60DBF80060CE
:1009F0005F46D1F804C09E435FEA8C3C00D51E439D
:100A00003E60DEF800607746D1F804C09E435FEA9E
:100A1000CC2C00D51E433E60084F0C373E68D1F801
:100A200004C09E435FEA8C2C00D51E433E60521CDE
:100A3000102AFFF431AFBDE8F88F0000003C014000
:100A400044380240003001400000024000040240EF
:100A500000080240000C0240001002400AB181610F
:100A600070470904FBE700000148806870470000F8
:100A70004400002002488168027811448160704778
:100A8000440000200B4810B5016841F4007101607A
:100A9000016841F480610160016841F48071016086
:100AA000032000F061F80F2000F006F800F024F8B1
:100AB000002010BD003C024070B50D4D04464FF4BF
:100AC0007A712878B1FBF0F00A490968B1FBF0F0BF
:100AD00000F0E3FD48B9102C07D200222146501E39
:100AE00000F022F800206C6070BD012070BD000095
:100AF00044000020500000200A4808B5016841F475
:100B000080410160006800F4804000900548001FAB
:100B1000016841F080510160006800F08050009051
:100B200008BD000044380240F0B40E4B1B680C4670
:100B3000C3F30223C3F10705042D00D90425191DB1
:100B4000072901D2002300E0DB1E012606FA05F189
:100B5000491E214099409E40761E16403143F0BC0C
:100B600001F0C0B90CED00E0064900F0070208688A
:100B70004FF6FF03184040EA0220034A1043086082
:100B8000704700000CED00E00000FA052DE9F04789
:100B90000E46050065D0DFF81481D8F80000F7B2E2
:100BA00000F00700B04207D288F80070D8F80000C3
:100BB00000F00700B04254D128683D4C810712D59F
:100BC000400703D5206840F4E050206028780007F3
:100BD00003D5206840F4604020602068A96820F0B8
:100BE000F000084320602878C0072DD0304968689D
:100BF0000839012812D0022813D0032811D009681F
:100C0000890700292DDA216821F0030101432160C1
:100C1000FFF72AFF814641F2883A0EE0096889030E
:100C2000EFE709688901ECE7FFF71EFFA0EB090178
:100C3000514502D90320BDE8F0872068696800F0BB
:100C40000C00B0EB810FEFD1D8F80010404601F056
:100C50000701B14207D90770006800F00700B042F1
:100C600001D00120E7E72878400705D52068E9682A
:100C700020F4E050084320602878000706D520685B
:100C8000296920F4604040EAC100206000F038F893
:100C90002168084AC1F30311515CC8400649086045
:100CA00006480068FFF708FF0020C4E7003C024048
:100CB000083802404B2C000850000020480000205B
:100CC0000448054900680968044AC1F38221515C5F
:100CD000C840704750000020083802405B2C0008D4
:100CE0000448054900680968044AC1F34231515C6F
:100CF000C840704750000020083802405B2C0008B4
:100D0000154810B5006810F00C02144813D01449AF
:100D1000042A0FD0082A0ED10F4C241F2268236802
:100D200002F03F025B0207D52068C0F38810A0FBE9
:100D3000010106E0084610BD2168C1F38811A1FB3E
:100D400000010023FFF7A0FA2168C1F30141491C0B
:100D50004900B0FBF1F010BD083802400024F40057
:100D600040787D012DE9F84F04006ED02078DFF83F
:100D70004C93C007A9F104054AD009F104000168A9
:100D8000C1F38101012908D00068C0F38100022865
:100D90000AD1D9F80000400206D52868800337D56B
:100DA00060680028E1D033E06068B0F5803F10D083
:100DB000B0F5A02F286810D020F480302860286873
:100DC00020F4802028606068A8B1FFF74DFE064639
:100DD0000DE0286840F48030F4E740F4802028607B
:100DE000F7E700BFFFF740FE801B642873D8286830
:100DF0008003F7D50CE0FFF737FE064605E000BF9D
:100E0000FFF732FE801B6428F0D828688003F7D4EF
:100E10002078DFF8AC8280074FF0000A3ED5A74863
:100E2000001D016811F00C0F08D00068C0F38100AC
:100E300002280BD1D9F80000400207D428688007A7
:100E400016D5E068012800D112E033E1E068B8B1BE
:100E50000120C8F80000FFF707FE064605E000BFC6
:100E6000FFF702FE801B0228C0D828688007F7D54C
:100E70002868216920F0F80040EAC10028600DE0F0
:100E8000C8F800A0FFF7F0FD064604E0FFF7ECFD10
:100E9000801B02281FD828688007F7D42078000715
:100EA00022D5864F87486169703771B10121016091
:100EB000FFF7DAFD064604E0FFF7D6FD801B0228A7
:100EC00009D838688007F7D50EE0C0F800A0FFF712
:100ED000CBFD064605E082E0FFF7C6FD801B022839
:100EE0007DD838688007F7D42078400768D5DFF8C8
:100EF000CCB100270BF13C0BDBF80000C0000BD499
:100F0000DBF8001041F08051CBF80010DBF8000056
:100F1000012700F0805000906B4E3068C00510D45F
:100F2000306840F480703060FFF79EFD009005E06F
:100F3000FFF79AFD0099401A022850D83068C00582
:100F4000F6D55E4EA0686C3601280FD005283068B3
:100F500010D020F001003060306820F004003060D4
:100F6000A068B8B1FFF780FD00900FE0306840F056
:100F70000100F4E740F004003060F7E7FFF774FD8C
:100F80000099411A41F28830814266D83068800762
:100F9000F4D50EE0FFF768FD009007E0FFF764FD71
:100FA0000099411A41F28830814256D83068800752
:100FB000F4D42FB1DBF8001021F08051CBF80010F1
:100FC000A069C8B33D49091D0968C1F3810102291F
:100FD0004AD00228504607D0C8F8600000E03CE044
:100FE000FFF742FD04463BE04746C8F86000FFF7C4
:100FF0003BFD064605E000BFFFF736FD801B0228DB
:101000002BD828688001F7D4D4E907010843A16AE6
:101010002E4A490802EB0141626A41EA8211084303
:1010200094F82C1040EA0161C9F8001001203866DC
:10103000FFF71AFD044606E03EE000BFFFF714FD8F
:10104000001B022809D828688001F7D534E000BFCA
:10105000FFF70AFD001B022802D90320BDE8F88F24
:1010600028688001F4D427E00128F7D0D9F80000DF
:10107000E26900F4800191421CD1226A00F03F0134
:10108000914217D147F6C071626A0140B1EB821FED
:1010900010D1A26A4FF0FF3300F4403103EB52024B
:1010A000B1EB024F06D194F82C1000F07060B0EB59
:1010B000016F01D00120D1E70020CFE704380240C2
:1010C00000004742800E4742007000400000FFFFD2
:1010D00070B5040009D0606A002540B125616561E2
:1010E000A56294F8510040B10CE0012070BD606829
:1010F000B0F5827FF4D0E561F2E784F850502046E5
:1011000000F044F8022084F851002068016821F0C2
:1011100040010160A088218900F4827001F404413B
:101120000843A18901F400610843217C01F0020118
:101130000843217D01F001010843218B01F4007176
:101140000843217F01F03801084394F8201001F092
:1011500080010843218D01F4005108432168086093
:10116000A069042101EA104094F8241001F0100154
:101170000843216848602068C16921F40061C161A9
:101180006565012084F85100002070BD10B586B05F
:10119000044614216846FFF782FA14492068884201
:1011A00021D113480021026842F4804202600068A5
:1011B00000F4804005900E481038026842F00202A8
:1011C0000260006800F0020005904FF4604000905B
:1011D0000220CDE901010320039005200490694617
:1011E0000448FFF74BFB06B010BD0000003800407C
:1011F00040380240000402402DE9F84F04464068A0
:101200000025984616460F464FF0040BB0F5827F36
:1012100001D1A06888B194F85000012818D00120AD
:1012200084F85000FFF720FC814694F851004FF0FD
:10123000000A01280ED0022582E084F851B013463E
:101240000A462046CDF8008000F036F9BDE8F88F58
:101250000220FBE7002F72D0002E70D084F851B02E
:10126000C4F854A0A763A687E687C4F830A0A4F802
:1012700034A0A4F836A0C4F840A0C4F844A0A068E4
:10128000B0F5004F09D12068016821F040010160EC
:101290002068016821F480410160206801684906E6
:1012A00003D4016841F040010160E068D8B139E041
:1012B00020688168C90709D0007BA16B0870A06B0A
:1012C000401CA063E08F401EE0870CE0FFF7CCFBE2
:1012D000A0EB0901414503D3B8F1FF3F03D036E04D
:1012E000B8F1000F33D0E08F0028E1D11DE0206875
:1012F0008168C90709D0C068A16B0880A06B801CF9
:10130000A063E08F401EE0870CE0FFF7ADFBA0EB91
:101310000901414503D3B8F1FF3F03D017E0B8F10D
:10132000000F14D0E08F0028E1D14A464146204604
:1013300000F041FB08B120206065606D00B101251F
:10134000012084F8510084F850A028467EE7032548
:10135000F6E72DE9F84F044690F8500000271D46A7
:101360001646894601280DD04FF0010B84F850B085
:10137000FFF77AFB804694F85100BA46012804D062
:10138000022793E00220BDE8F88FB9F1000F73D077
:10139000002E71D0032084F85100C4F854A0C4F882
:1013A0003090A686E686C4F838A0A4F83CA0A4F83D
:1013B0003EA0C4F844A0C4F840A0A068B0F5004F17
:1013C00009D12068016821F04001016020680168AE
:1013D00041F48041016020680168490603D4016836
:1013E00041F040010160E068B0F5006F606803D033
:1013F00030B3012E24D041E008B1012E1CD1206B66
:1014000021680088C86006E020688168890709D5DE
:10141000216B0988C160206B801C2063E08E401E18
:10142000E08609E0FFF720FBA0EB0800A84202D30A
:10143000681C01D031E07DB3E08E0028E4D120E0CB
:10144000206B21680078087306E0206881688907AE
:1014500009D5216B09780173206B401C2063E08E55
:10146000401EE0860AE0FFF7FFFAA0EB0800A84262
:1014700003D3681C02D010E017E06DB1E08E0028A5
:10148000E3D142462946204600F0C4FA08B12020A4
:101490006065A06818B106E0FFE7032706E0206852
:1014A000C16880680090606D00B1012784F851B078
:1014B00084F850A0384666E72DE9F84F044690F8C6
:1014C000500000270A9E1D4692468B464FF00109A8
:1014D00001280ED0012084F85000FFF7C5FA80469D
:1014E00094F85100616801280CD0B1F5827F07D1D2
:1014F00002E00220BDE8F88FA16809B9042801D0F4
:101500000227C2E0BBF1000F27D0BAF1000F24D0B0
:101510001DB394F85100042802D0052084F851002E
:1015200000206065C4F838A0E587A587C4F830B00E
:10153000E586A5862064606420680168490603D4B6
:10154000016841F040010160E068B0F5006F60683B
:1015500005D0E8B3012D46D07FE0012795E008B122
:10156000012D39D1206B21680088C860206B801C58
:101570002063E08E401EE0862EE0206881688907A7
:101580000FD5E18E69B1B9F1010F0AD1216B09883C
:10159000C160206B801C2063E08E401EE0864FF00F
:1015A000000920688168C9070CD0E18F51B1C0687B
:1015B000A16B0880A06B801CA063E08F401EE087B9
:1015C0004FF00109FFF750FAA0EB0800B04200E02D
:1015D00009E001D3701C50D1E08E0028CDD1E08FFE
:1015E0000028CAD13FE0206B216800780873206B87
:1015F000401C2063E08E401EE0862EE0206881685B
:1016000089070FD5E18E69B1B9F1010F0AD1216BBC
:1016100009780173206B401C2063E08E401EE08639
:101620004FF0000920688168C9070CD0E18F51B1E3
:10163000C068A16B0870A06B401CA063E08F401EC7
:10164000E0874FF00109FFF70FFAA0EB0800B04266
:1016500002D3701C01D010E07EB1E08E0028CDD105
:10166000E08F0028CAD142463146204600F0D2F928
:1016700028B101272020606507E0032705E0A06866
:1016800018B92068C16880680090012084F8510072
:10169000002084F8500038462CE710B5401EB0F109
:1016A000807F01D3012010BD4FF0E02460610F2145
:1016B000601700F017FC0020A061072020610020C7
:1016C00010BD70B5040004D094F83D00002510B1A1
:1016D00006E0012070BD84F83C50204600F022F85E
:1016E000242084F83D002068C16821F40051C160C5
:1016F000204600F065FA2068016921F490410161FB
:101700002068416921F02A0141612068C16841F4E3
:101710000051C1602564202084F83D0084F83E001B
:10172000002070BD10B586B0044614216846FEF74F
:10173000B6FF13492068884220D112480021026870
:1017400042F400320260006800F4003005900D4859
:101750001038026842F001020260006800F00100E7
:1017600005900C2000900220CDE901010320039098
:101770000720049069460448FFF780F806B010BDC2
:101780000044004040380240000002402DE9F84388
:10179000044690F83D001F4616460D4620284CD1C1
:1017A000C5B1BEB194F83C00012846D0012084F8B0
:1017B0003C004FF00008C4F84080212084F83D0030
:1017C000FFF752F9A6848146E684A068B0F5805FF1
:1017D00003D004E00120BDE8F883206928B12E463B
:1017E0005FF0000584F83C800EE00026FAE78021D7
:1017F000204600F06BFAA0B9AEB116F8010B2168D3
:101800004860E08C401EE084E08C4B464FF00002C4
:1018100000970028EBD14FF04001204600F056FA27
:1018200030B10320D7E735F8020BC0F30800E6E734
:10183000202084F83D000020CDE70220CBE7FEE722
:1018400010B51D4886B00024016841F00401016014
:10185000016801F004010591016841F08001016017
:10186000016801F080010591016841F0010101600A
:10187000016801F001010591016841F00201016078
:101880000068694600F0020005904FF40050009097
:101890004FF49010CDE901040848FEF7EFFF202037
:1018A00000900120CDE90104694605480394FEF744
:1018B000E5FF06B010BD00003038024000080240CD
:1018C0000004024030B51E4887B01C4901604FF447
:1018D00082710024C0E90114C4604FF400710461F6
:1018E000C0E905410821C0E9071444628462154833
:1018F000016841F4804101600068134D00F48040AC
:1019000005904FF4604000900220CDE901040320CF
:1019100003900520049069462846FEF7AFFF012199
:10192000A814CDE90214CDE9000169462846FEF766
:10193000A5FF0348FFF7CCFB07B030BD00380040DF
:1019400064000020403802400004024000B5154801
:1019500087B0134901604FF4E1314160002181609B
:101960000C22C160C0E904128161C1610E480368A4
:1019700043F4003303600068009200F400300590E7
:101980000220CDE901010720CDE90310694607488F
:10199000FEF774FF0348FFF794FE07B000BD000098
:1019A00000440040BC0000204038024000000240DB
:1019B000FEE7FEE77047F8B5044640684FF48273CF
:1019C000984221D1A0684FF48065B0F5004F01D056
:1019D000A8420AD12068066826F0400606606068C2
:1019E000984211D1A068A8420ED000920B46002266
:1019F0008021204600F03AF8002804D0606D40F0C5
:101A0000200060650320F8BD00920B4600220121F2
:101A1000EFE7000038B504461248134B0068B0FBEE
:101A2000F3F04FF47A73584300906068B0F5827F0A
:101A30000DD10B46009200228021204600F016F8BE
:101A400070B1606D40F020006065032038BD0098E3
:101A500030B1401E009020688068C0430006F6D573
:101A6000002038BD5000002000366E012DE9F843FB
:101A70001E46914688460446089DFEF7F5FF401B2A
:101A8000351AFEF7F1FF074625480068C0F3CB3052
:101A9000684338E0701C37D0FEF7E6FFC01BA84251
:101AA00003D215B1009860B32CE02068416821F0A2
:101AB000E00141606068B0F5827F0BD1A068B0F5AD
:101AC000004F02D0B0F5806F04D12068016821F08A
:101AD00040010160A06AB0F5005F09D1206801688B
:101AE00021F4005101602068016841F40051016057
:101AF000012084F85100002084F850000320BDE844
:101B0000F8830025401E00902068816838EA0100B3
:101B100004D000214945BDD10020F0E70121F9E7BB
:101B2000500000207047FEF7A5BF000030B51E48EA
:101B300093B00024016841F080510160006800F01A
:101B4000805011901948016821F4404141F400414E
:101B500001600068022500F44040119001200390CC
:101B60001020009506950490CDE907404FF4A87029
:101B7000099004200A9007200B906846FFF7F2F8BE
:101B800000B1FEE70F20CDE90C054FF48050CDE900
:101B90000E4002210CA81094FEF7F8FF002800D098
:101BA000FEE713B030BD0000403802400070004036
:101BB0000248016841F470010160704788ED00E05F
:101BC00070B5044600680169E26821F44051114390
:101BD00001612169A068E269084361691143084312
:101BE0002168CA6849F20C639A430243CA602068BC
:101BF0004169A26921F44071114341613149206872
:101C0000884202D03049884202D1FFF769F801E0EA
:101C1000FFF756F8E2690023192164253226B2F550
:101C2000004F626828D0A0FB0101930F9200FEF7DD
:101C30002BFB0146B0FBF5F06FF01802504301EBAF
:101C4000800006EB0010B0FBF5F000F0F002B1FBF5
:101C5000F5F002EB0012B1FBF5F06FF018035843FA
:101C600001EB800006EB0010B0FBF5F000F00F0078
:101C700021681044886070BDA0FB010192185B418F
:101C8000FEF702FB0146B0FBF5F00201B1FBF5F0F7
:101C90006FF01803584301EB800006EBC000B0FB67
:101CA000F5F000F0F80002EB4002B1FBF5F058430C
:101CB00001EB800006EBC000B0FBF5F000F0070080
:101CC000D6E7000000100140001401402DE9F0416A
:101CD000984617460E460446069D27E0681C25D008
:101CE0002DB1FEF7C1FEA0EB0800A8421ED9206866
:101CF0000C3050E8001F21F4D07140E80012002A97
:101D0000F5D12068143050E8001F21F0010140E8AF
:101D10000012002AF5D1202084F83D0084F83E000E
:101D2000002084F83C000320BDE8F08120680068B2
:101D300036EA000004D00020B842CFD00020F3E7FC
:101D40000120F9E7FEE70000F8B5144C0546E0680D
:101D5000804760698047616AC5F30740C5F307267D
:101D600099B1A26A8AB18DF800008DF801608DF8F2
:101D70000250032168469047E06980470546A06904
:101D80008047206980472846F8BD216A8847216A34
:101D900030468847216AE8B28847EDE718000020FE
:101DA0002DE9F8431A4C05461746E06888468047F7
:101DB00060698047616AC5F30740C5F30726A1B192
:101DC000A26A92B18DF800008DF801608DF8025082
:101DD000032168469047626A394640469047A069A9
:101DE000804720698047BDE8F883216A8847216AD7
:101DF00030468847216AE8B28847002505E0E06957
:101E0000804708F805006D1CADB2BD42F7D3E6E788
:101E100018000020F8B5164C05460E46E0688047CD
:101E200060698047A26A45F004058AB1280C8DF8E4
:101E30000000280A8DF801008DF802508DF803602B
:101E4000042168469047A069804720698047F8BD13
:101E5000216AC5F307408847216AC5F307208847F0
:101E6000216AE8B28847216A30468847EBE70000DC
:101E700018000020F8B51A4C05461646E0680F46D3
:101E8000804760698047A26A45F004059AB1280C32
:101E90008DF80000280A8DF801008DF8025003210A
:101EA00068469047A26A314638469047A069804705
:101EB00020698047F8BD216AC5F307408847216A39
:101EC000C5F307208847216AE8B28847002504E067
:101ED000216A785D88476D1CADB2B542F8D3E5E75D
:101EE000180000200907090E002804DB00F1E0209B
:101EF00080F80014704700F00F0000F1E02080F837
:101F0000141D704730380A2801D201207047002084
:101F10007047000070B50446082802D94FF0FF3022
:101F200070BD4FF4847000EB441005461021FFF79C
:101F300071FF2846FFF708FF0028FAD14FF402701E
:101F400000EB44101F21FFF765FF0D490120A04061
:101F50004A8882434A808A8882438A8009490020CD
:101F600021F814000649891D08554FF4427000EB12
:101F700044142046FFF7E8FE0028FAD1012070BD86
:101F80000000002054000020012211030148FEF748
:101F900065BD00000004024000224FF4805101485A
:101FA000FEF75CBD0004024070B50446082802D963
:101FB0004FF0FF3070BD600101250830FFF7C4FE0F
:101FC00000F00F00012801D0A81F70BD4FF48470ED
:101FD00000EB441006460821FFF71CFF3046FFF7D0
:101FE000B3FE0028FAD11248A5408188A943818018
:101FF000408805420CD0002070BD3046FFF7A4FE9B
:1020000000070DD52046FFF785FF6FF00C0070BD6F
:102010004FF4027000EB44164FF4427000EB44158D
:102020002846FFF791FE0028E7D1012070BD00008F
:10203000000000202DE9F04142F2086101EB40155B
:1020400042F20871002601EB40142846FFF77CFE9F
:1020500007462046FFF778FE00EB072007043F0CF9
:1020600009D02846FFF770FE06462046FFF76CFEB3
:1020700000EB062086B2BE42E7D13046BDE8F081D3
:102080002DE9F04142F2080101EB401542F208113E
:10209000002601EB40142846FFF756FE074620466F
:1020A000FFF752FE00EB072007043F0C09D028463B
:1020B000FFF74AFE06462046FFF746FE00EB0620E5
:1020C00086B2BE42E7D13046BDE8F08170B5154614
:1020D0000446082802D94FF0FF3070BD6001083077
:1020E0006FF004060D2967D2DFE801F0070C111428
:1020F0001E27663744484C535D00FFF725FE00F06D
:10210000F00002E041F208603EE0287049E041F250
:10211000085039E041F2083000EB4410FFF714FE9C
:10212000064641F2082011E040F6084000EB44105A
:1021300004222946FFF734FE33E041F2081000EB99
:102140004410FFF701FE064641F2080000EB441080
:10215000FFF7FAFD06EB002022E0FFF7F5FD00F0A7
:102160000F00012826D142F6087000EB4410FFF75B
:10217000EBFD15E02046FFF783FF11E02046FFF757
:1021800059FF0DE04FF4427000EB4410FFF7DCFD07
:10219000BBE7FFF7D9FDC007F0D1094830F81400BC
:1021A0002880012070BDFFF7CFFD012802D005482F
:1021B000005DAAE7304670BD6FF0010070BD000001
:1021C000540000200600002070B50446082802D9FB
:1021D0004FF0FF3070BD60010830FFF7B5FD00F033
:1021E0000F00012802D06FF0040070BD4FF4427060
:1021F00000EB44100546FFF7A7FD132802D06FF04F
:10220000020070BD4FF4847000EB441006460221BA
:10221000FFF700FE3046FFF797FD0028FAD1284669
:10222000FFF792FD142805D02046FFF773FE6FF0EC
:10223000030070BD012070BD8CB0AAA000680B9097
:10224000FEF720FCFFF772FCFFF7FAFAFFF73AFB04
:10225000FFF77CFB64232F22A3A1AF48FFF796FA78
:1022600064232F22ADA1AC48FFF790FA64232F22FC
:102270009DA1A948FFF78AFAB449B54800F06CFA65
:10228000B449B54800F07AFA0BA9084600F026FCDC
:102290001822B24904A8FEF7D0F904A800F05CFCAB
:1022A00004A800F0EFFB64231822ADA19A48FFF7C1
:1022B0006DFA9DF812009DF815309DF814209DF8D8
:1022C00013108DE80F0094489DF811309DF81020F0
:1022D000AAA14430FEF750F88F484430FEF78EF93B
:1022E0008D4982B2642344318B48FFF74FFA9DF841
:1022F00019109DF81800CDE9000187489DF81730A6
:102300009DF81620A6A14430FEF736F882484430E6
:10231000FEF774F9804982B2642344317E48FFF7A6
:1023200035FA9DF81D109DF81C00CDE900017A4892
:102330009DF81B309DF81A20A1A14430FEF71CF82F
:1023400075484430FEF75AF9734982B26423443128
:102350007148FFF71BFA9DF821109DF82000CDE988
:1023600000016D489DF81F309DF81E209CA144304F
:10237000FEF702F868484430FEF740F9664982B239
:10238000642344316448FFF701FA4FF44274002398
:1023900050220121184600F095FA10F0FF0213D0E8
:1023A0005D4897A14430FDF7E7FF642315229FA104
:1023B0005948FFF7EBF958484430FEF71FF95649E2
:1023C000642382B2443115E06423112298A152485B
:1023D000FFF7DCF90020FFF7F7FEC0B201284FF04D
:1023E000640311D00F2297A14B48FFF7CFF9642364
:1023F000112298A14848FFF7C9F90020FFF7D4FD42
:102400000020FFF787FDC2E70D2293A14EE0642371
:102410000A2295A14048FFF7B9F903AA0421002038
:10242000FFF754FE0AAA05210020FFF74FFE9DF892
:102430000E00BDF828209DF80F108DE807003648E3
:102440009DF80D309DF80C208AA14430FDF794FFD3
:1024500031484430FEF7D2F82F4982B26423443128
:102460002D48FFF793F9302290A1002000F09CF94D
:10247000302818D0002262A127484430FDF77CFFA5
:1024800025484430FEF7BAF82349642382B2443128
:102490000CE000256423102291A11F48FFF776F974
:1024A0002A4694A1E8E7642329229BA11A48FFF752
:1024B0006DF92046FFF748FC142898D164231222B6
:1024C000A0A11548FFF762F94FF4FA70FEF7C4F9BE
:1024D0006420FEF7C1F92046FFF736FC1728D8D153
:1024E00095E70000020202023D3D3D3D3D3D3D3D80
:1024F0003D3D3D3D3D3D3D3D3D3D3D3D3D3D3D3D0C
:102500003D3D3D3D3D3D3D3D3D3D3D3D3D3D3D3DFB
:102510003D3D3D3D3D0D0A00BC00002057656C630C
:102520006F6D6520746F2053544D33324E75636C5C
:10253000656F2045746865726E657420636F6E66A2
:10254000696775726174696F6E0D0A00891F0008F2
:10255000991F0008FD290008E1290008342C000813
:102560004E6574776F726B20636F6E666967757204
:102570006174696F6E3A0D0A0000000020204D4121
:102580004320414444524553533A2025783A257814
:102590003A25783A25783A25783A25780D0A0000C8
:1025A0002020495020414444524553533A2020258D
:1025B000642E25642E25642E25640D0A000000007B
:1025C00020204E45544D41534B3A202020202025B9
:1025D000642E25642E25642E25640D0A000000005B
:1025E0002020474154455741593A2020202020259A
:1025F000642E25642E25642E25640D0A000000003B
:10260000536F6D657468696E672077656E742077A7
:10261000726F6E673B2072657475726E2076616CA6
:1026200075653A2025640D0A000000004E4F5420C5
:102630004C495354454E2073756363736573210D84
:102640000A0000004C495354454E204572726F7287
:10265000210D0A004E4F5420534F4320434F4E202C
:102660006F6B210D0A0000006F6B20657672792177
:102670000D0A0000436F6E6E656374696F6E2065AE
:10268000737461626C69736865642077697468202B
:1026900072656D6F74652049503A2025642E25645B
:1026A0002E25642E25643A25640D0A0057656C6C4E
:1026B00020646F6E652067757973212057656C63A0
:1026C0006F6D6520746F2074686520496F542077A2
:1026D0006F726C642E20427965210D0A00000000A3
:1026E000537461747573204572726F7272210D0A92
:1026F00000000000536F6D657468696E6720776530
:102700006E742077726F6E673B205354415455535B
:102710003A2025640D0A000053656E742061206D17
:102720006573736167652E204C6574277320636C35
:102730006F73652074686520736F636B6574210D1A
:102740000A0000005768696C65204C697374656EF7
:10275000206F6B210D0A0000054A18B111B1C2E9C2
:1027600005017047034850610348906170470000BD
:1027700018000020832A0008812A0008074A10B5A3
:1027800013889C05FDD518B111B1C2E9070110BD30
:102790000348D0610348106210BD000018000020FB
:1027A000B12B0008B52B00082DE9F05F15468B46CC
:1027B0000646082803D94FF0FF30BDE8F09F7001AE
:1027C00001240830FFF7C0FA00F00F00012801D003
:1027D000A01FF2E775B14FF4427000EB46100746B8
:1027E000FFF7B2FA6FF0060A172806D01C2804D0AB
:1027F0005046E2E76FF00D00DFE7DFF8C480B44039
:10280000B8F80400044213D04FF4027000EB4610F5
:102810008146FFF799FA00F01F00C10624D548460B
:102820001021FFF7F7FAB8F80410A143A8F8041034
:1028300041F6087000EB4610FFF786FA4FF6FF717D
:1028400001EA8020854200D905463046FFF718FC92
:1028500081463846FFF778FA17280DD01C280BD090
:102860003046FFF757FBC3E700070BD53046FFF7AD
:1028700051FB6FF00C00A0E7B8F80200044203D04F
:102880004D4501D9002098E74D45DED82A465946E6
:10289000304600F0BFF84FF4847000EB4610064657
:1028A0002021FFF7B7FA3046FFF74EFA0028FAD199
:1028B000B8F8041028460C43A8F804407DE700004F
:1028C000000000202DE9F8431D4617460E46044639
:1028D000082803D94FF0FF30BDE8F883012E08D057
:1028E000022E0ED0032E0CD0042E0AD06FF004005E
:1028F000F2E7042269464FF47060FFF751FA00983E
:1029000048B169076FF00500E6D49DB1012E05D0EE
:10291000022E0FD106E06FF00200DDE715F0210F67
:10292000DAD007E0A90601D52906D5D5E90601D5F3
:102930002906D1D52046FFF7EDFA600105F0F00138
:102940004FF0010831430830FFF764FA224E57B9BF
:102950003788781C80B2A0F57F413080F03902D1F1
:102960004FF4404030804FF48160390A00EB44104E
:10297000FFF750FA4FF4A160F9B200EB4410FFF7F3
:1029800049FA4FF4847000EB441007460121FFF729
:1029900041FA3846FFF7D8F90028FAD108FA04F0CE
:1029A000718805F001028143A2400A437280B18818
:1029B0008143B1800949002021F814000649891D8E
:1029C00008554FF4427000EB44152846FFF7BCF958
:1029D0000028FAD060B27FE70000002054000020F9
:1029E00008B54FF0FF33012269460348FEF704FCA7
:1029F0009DF8000008BD00006400002001B54FF004
:102A0000FF33012269460248FEF7A3FC08BD00001F
:102A1000640000202DE9F0475FEA02088946064677
:102A200026D042F2085000EB46152846FFF78CF9F5
:102A3000074642F2084000EB46142046FFF784F9AF
:102A400007EB002087B2380200EB461042464946A9
:102A50001030FFF70FFA07EB080086B2310A204664
:102A6000FFF7D8F9F1B22846BDE8F047FFF7D2B931
:102A7000BDE8F08700787047017070477047704775
:102A80007047704710B50446014606224FF41060A7
:102A9000FFF786F9042204F10E019001FFF780F997
:102AA000042204F10A014FF4A060FFF779F904222F
:102AB000A11D4FF47060FFF773F907480178A17406
:102AC0004178E17481782175C07860750248401EB4
:102AD0000078A07510BD0000110000202DE9F04124
:102AE0000D460646002400F066F84FF0FF38AEB100
:102AF0000022B05C204444B2102C17DC521C52B2AD
:102B0000082AF6DB002441F60877315D07EB441014
:102B1000FFF780F9641C64B2082CF6DBCDB100210C
:102B200008462A5C114449B2102902DD4046BDE83E
:102B3000F081401C40B20828F3DB002441F608660F
:102B4000295D06EB4410FFF765F9641C64B2082C9C
:102B5000F6DB0020EBE7000010B504460146062234
:102B60004FF41060FFF786F9042204F10E01900182
:102B7000FFF780F9042204F10A014FF4A060FFF787
:102B800079F90422A11D4FF47060FFF773F907482B
:102B9000A17C0170E17C4170217D8170617DC170FB
:102BA0000249A07D491E087010BD000011000020E0
:102BB000002070477047F0B585B04FF410640622CE
:102BC00069462046FFF7ECF80422950102A9284641
:102BD000FFF7E6F84FF4A066042203A93046FFF79A
:102BE000DFF84FF47067042204A93846FFF7D8F8DD
:102BF00080210020FFF70EF90020FFF7A5F806223C
:102C000069462046FFF736F9042202A92846FFF755
:102C100031F9042203A93046FFF72CF9042204A954
:102C20003846FFF727F905B0F0BD4FF04070E1EEF0
:102C3000100A70470008DCABCDEFC0A8019FFFFF72
:102C4000FF00C0A80101000000000000000000001B
:102C5000000000010203040607080900000000014B
:102C60000203043031323334353637383941424388
:102C700044454640305800303132333435363738E9
:102C800039616263646566403078000400000800C2
:102C9000000000000000020001000010BC2C000831
:102CA0000000002054000000D4010008102D00088E
:102CB000540000204C070000F001000800C0000094
:102CC0000000000000000000000000000000000004
:102CD00000000000010257353530300000000000D0
:102CE0007D2A00087F2A0008832A0008812A00081C
:102CF000752A0008792A0008000000000000000082
:102D00000100000010000000000000000024F4009A
:040000050800019955
:00000001FF
